{
	"data": {
		"bytecode": {
			"linkReferences": {},
			"object": "608060405234801561000f575f80fd5b50604051611b96380380611b9683398181016040528101906100319190610282565b5f8211610073576040517f08c379a000000000000000000000000000000000000000000000000000000000815260040161006a90610378565b60405180910390fd5b835f9081610081919061059a565b508260019081610091919061059a565b508160028190555062015180816100a89190610696565b426100b391906106d7565b6003819055503360045f6101000a81548173ffffffffffffffffffffffffffffffffffffffff021916908373ffffffffffffffffffffffffffffffffffffffff1602179055505050505061070a565b5f604051905090565b5f80fd5b5f80fd5b5f80fd5b5f80fd5b5f601f19601f8301169050919050565b7f4e487b71000000000000000000000000000000000000000000000000000000005f52604160045260245ffd5b6101618261011b565b810181811067ffffffffffffffff821117156101805761017f61012b565b5b80604052505050565b5f610192610102565b905061019e8282610158565b919050565b5f67ffffffffffffffff8211156101bd576101bc61012b565b5b6101c68261011b565b9050602081019050919050565b8281835e5f83830152505050565b5f6101f36101ee846101a3565b610189565b90508281526020810184848401111561020f5761020e610117565b5b61021a8482856101d3565b509392505050565b5f82601f83011261023657610235610113565b5b81516102468482602086016101e1565b91505092915050565b5f819050919050565b6102618161024f565b811461026b575f80fd5b50565b5f8151905061027c81610258565b92915050565b5f805f806080858703121561029a5761029961010b565b5b5f85015167ffffffffffffffff8111156102b7576102b661010f565b5b6102c387828801610222565b945050602085015167ffffffffffffffff8111156102e4576102e361010f565b5b6102f087828801610222565b93505060406103018782880161026e565b92505060606103128782880161026e565b91505092959194509250565b5f82825260208201905092915050565b7f476f616c206d7573742062652067726561746572207468616e207a65726f00005f82015250565b5f610362601e8361031e565b915061036d8261032e565b602082019050919050565b5f6020820190508181035f83015261038f81610356565b9050919050565b5f81519050919050565b7f4e487b71000000000000000000000000000000000000000000000000000000005f52602260045260245ffd5b5f60028204905060018216806103e457607f821691505b6020821081036103f7576103f66103a0565b5b50919050565b5f819050815f5260205f209050919050565b5f6020601f8301049050919050565b5f82821b905092915050565b5f600883026104597fffffffffffffffffffffffffffffffffffffffffffffffffffffffffffffffff8261041e565b610463868361041e565b95508019841693508086168417925050509392505050565b5f819050919050565b5f61049e6104996104948461024f565b61047b565b61024f565b9050919050565b5f819050919050565b6104b783610484565b6104cb6104c3826104a5565b84845461042a565b825550505050565b5f90565b6104df6104d3565b6104ea8184846104ae565b505050565b5b8181101561050d576105025f826104d7565b6001810190506104f0565b5050565b601f82111561055257610523816103fd565b61052c8461040f565b8101602085101561053b578190505b61054f6105478561040f565b8301826104ef565b50505b505050565b5f82821c905092915050565b5f6105725f1984600802610557565b1980831691505092915050565b5f61058a8383610563565b9150826002028217905092915050565b6105a382610396565b67ffffffffffffffff8111156105bc576105bb61012b565b5b6105c682546103cd565b6105d1828285610511565b5f60209050601f831160018114610602575f84156105f0578287015190505b6105fa858261057f565b865550610661565b601f198416610610866103fd565b5f5b8281101561063757848901518255600182019150602085019450602081019050610612565b868310156106545784890151610650601f891682610563565b8355505b6001600288020188555050505b505050505050565b7f4e487b71000000000000000000000000000000000000000000000000000000005f52601160045260245ffd5b5f6106a08261024f565b91506106ab8361024f565b92508282026106b98161024f565b915082820484148315176106d0576106cf610669565b5b5092915050565b5f6106e18261024f565b91506106ec8361024f565b925082820190508082111561070457610703610669565b5b92915050565b61147f806107175f395ff3fe60806040526004361061009b575f3560e01c80637284e416116100635780637284e416146101855780637497211b146101af5780638da5cb5b146101d75780638ece7b9114610201578063aa3ba17914610229578063ca1d209d1461023f5761009b565b8063039af9eb1461009f57806306fdde03146100dd57806329dcb0cf1461010757806340193883146101315780636f9fb98a1461015b575b5f80fd5b3480156100aa575f80fd5b506100c560048036038101906100c091906109e0565b61025b565b6040516100d493929190610a8a565b60405180910390f35b3480156100e8575f80fd5b506100f1610316565b6040516100fe9190610ac6565b60405180910390f35b348015610112575f80fd5b5061011b6103a1565b6040516101289190610ae6565b60405180910390f35b34801561013c575f80fd5b506101456103a7565b6040516101529190610ae6565b60405180910390f35b348015610166575f80fd5b5061016f6103ad565b60405161017c9190610ae6565b60405180910390f35b348015610190575f80fd5b506101996103b4565b6040516101a69190610ac6565b60405180910390f35b3480156101ba575f80fd5b506101d560048036038101906101d091906109e0565b610440565b005b3480156101e2575f80fd5b506101eb61054a565b6040516101f89190610b3e565b60405180910390f35b34801561020c575f80fd5b5061022760048036038101906102229190610c83565b61056f565b005b348015610234575f80fd5b5061023d6106b1565b005b610259600480360381019061025491906109e0565b6107d0565b005b6005818154811061026a575f80fd5b905f5260205f2090600302015f91509050805f01805461028990610d0a565b80601f01602080910402602001604051908101604052809291908181526020018280546102b590610d0a565b80156103005780601f106102d757610100808354040283529160200191610300565b820191905f5260205f20905b8154815290600101906020018083116102e357829003601f168201915b5050505050908060010154908060020154905083565b5f805461032290610d0a565b80601f016020809104026020016040519081016040528092919081815260200182805461034e90610d0a565b80156103995780601f1061037057610100808354040283529160200191610399565b820191905f5260205f20905b81548152906001019060200180831161037c57829003601f168201915b505050505081565b60035481565b60025481565b5f47905090565b600180546103c190610d0a565b80601f01602080910402602001604051908101604052809291908181526020018280546103ed90610d0a565b80156104385780601f1061040f57610100808354040283529160200191610438565b820191905f5260205f20905b81548152906001019060200180831161041b57829003601f168201915b505050505081565b6005805490508110610487576040517f08c379a000000000000000000000000000000000000000000000000000000000815260040161047e90610d84565b60405180910390fd5b6005600160058054905061049b9190610dcf565b815481106104ac576104ab610e02565b5b905f5260205f209060030201600582815481106104cc576104cb610e02565b5b905f5260205f2090600302015f8201815f0190816104ea9190610fe1565b5060018201548160010155600282015481600201559050506005805480610514576105136110c6565b5b600190038181905f5260205f2090600302015f8082015f6105359190610944565b600182015f9055600282015f90555050905550565b60045f9054906101000a900473ffffffffffffffffffffffffffffffffffffffff1681565b60045f9054906101000a900473ffffffffffffffffffffffffffffffffffffffff1673ffffffffffffffffffffffffffffffffffffffff163373ffffffffffffffffffffffffffffffffffffffff16146105fe576040517f08c379a00000000000000000000000000000000000000000000000000000000081526004016105f590611163565b60405180910390fd5b5f8111610640576040517f08c379a0000000000000000000000000000000000000000000000000000000008152600401610637906111cb565b60405180910390fd5b600560405180606001604052808481526020018381526020015f815250908060018154018082558091505060019003905f5260205f2090600302015f909190919091505f820151815f01908161069691906111e9565b50602082015181600101556040820151816002015550505050565b60045f9054906101000a900473ffffffffffffffffffffffffffffffffffffffff1673ffffffffffffffffffffffffffffffffffffffff163373ffffffffffffffffffffffffffffffffffffffff1614610740576040517f08c379a000000000000000000000000000000000000000000000000000000000815260040161073790611163565b60405180910390fd5b600254471015610785576040517f08c379a000000000000000000000000000000000000000000000000000000000815260040161077c90611302565b60405180910390fd5b5f4790503373ffffffffffffffffffffffffffffffffffffffff166108fc8290811502906040515f60405180830381858888f193505050501580156107cc573d5f803e3d5ffd5b5050565b5f600582815481106107e5576107e4610e02565b5b905f5260205f209060030201600101549050803414610839576040517f08c379a000000000000000000000000000000000000000000000000000000000815260040161083090611390565b60405180910390fd5b600354421061087d576040517f08c379a0000000000000000000000000000000000000000000000000000000008152600401610874906113f8565b60405180910390fd5b81600580549050116108c4576040517f08c379a00000000000000000000000000000000000000000000000000000000081526004016108bb90610d84565b60405180910390fd5b803414610906576040517f08c379a00000000000000000000000000000000000000000000000000000000081526004016108fd90611390565b60405180910390fd5b60016005838154811061091c5761091b610e02565b5b905f5260205f2090600302016002015f8282546109399190611416565b925050819055505050565b50805461095090610d0a565b5f825580601f10610961575061097e565b601f0160209004905f5260205f209081019061097d9190610981565b5b50565b5b80821115610998575f815f905550600101610982565b5090565b5f604051905090565b5f80fd5b5f80fd5b5f819050919050565b6109bf816109ad565b81146109c9575f80fd5b50565b5f813590506109da816109b6565b92915050565b5f602082840312156109f5576109f46109a5565b5b5f610a02848285016109cc565b91505092915050565b5f81519050919050565b5f82825260208201905092915050565b8281835e5f83830152505050565b5f601f19601f8301169050919050565b5f610a4d82610a0b565b610a578185610a15565b9350610a67818560208601610a25565b610a7081610a33565b840191505092915050565b610a84816109ad565b82525050565b5f6060820190508181035f830152610aa28186610a43565b9050610ab16020830185610a7b565b610abe6040830184610a7b565b949350505050565b5f6020820190508181035f830152610ade8184610a43565b905092915050565b5f602082019050610af95f830184610a7b565b92915050565b5f73ffffffffffffffffffffffffffffffffffffffff82169050919050565b5f610b2882610aff565b9050919050565b610b3881610b1e565b82525050565b5f602082019050610b515f830184610b2f565b92915050565b5f80fd5b5f80fd5b7f4e487b71000000000000000000000000000000000000000000000000000000005f52604160045260245ffd5b610b9582610a33565b810181811067ffffffffffffffff82111715610bb457610bb3610b5f565b5b80604052505050565b5f610bc661099c565b9050610bd28282610b8c565b919050565b5f67ffffffffffffffff821115610bf157610bf0610b5f565b5b610bfa82610a33565b9050602081019050919050565b828183375f83830152505050565b5f610c27610c2284610bd7565b610bbd565b905082815260208101848484011115610c4357610c42610b5b565b5b610c4e848285610c07565b509392505050565b5f82601f830112610c6a57610c69610b57565b5b8135610c7a848260208601610c15565b91505092915050565b5f8060408385031215610c9957610c986109a5565b5b5f83013567ffffffffffffffff811115610cb657610cb56109a9565b5b610cc285828601610c56565b9250506020610cd3858286016109cc565b9150509250929050565b7f4e487b71000000000000000000000000000000000000000000000000000000005f52602260045260245ffd5b5f6002820490506001821680610d2157607f821691505b602082108103610d3457610d33610cdd565b5b50919050565b7f7469657220646f6573206e6f74206578697374000000000000000000000000005f82015250565b5f610d6e601383610a15565b9150610d7982610d3a565b602082019050919050565b5f6020820190508181035f830152610d9b81610d62565b9050919050565b7f4e487b71000000000000000000000000000000000000000000000000000000005f52601160045260245ffd5b5f610dd9826109ad565b9150610de4836109ad565b9250828203905081811115610dfc57610dfb610da2565b5b92915050565b7f4e487b71000000000000000000000000000000000000000000000000000000005f52603260045260245ffd5b5f81549050610e3d81610d0a565b9050919050565b5f819050815f5260205f209050919050565b5f6020601f8301049050919050565b5f82821b905092915050565b5f60088302610ea07fffffffffffffffffffffffffffffffffffffffffffffffffffffffffffffffff82610e65565b610eaa8683610e65565b95508019841693508086168417925050509392505050565b5f819050919050565b5f610ee5610ee0610edb846109ad565b610ec2565b6109ad565b9050919050565b5f819050919050565b610efe83610ecb565b610f12610f0a82610eec565b848454610e71565b825550505050565b5f90565b610f26610f1a565b610f31818484610ef5565b505050565b5b81811015610f5457610f495f82610f1e565b600181019050610f37565b5050565b601f821115610f9957610f6a81610e44565b610f7384610e56565b81016020851015610f82578190505b610f96610f8e85610e56565b830182610f36565b50505b505050565b5f82821c905092915050565b5f610fb95f1984600802610f9e565b1980831691505092915050565b5f610fd18383610faa565b9150826002028217905092915050565b818103610fef5750506110c4565b610ff882610e2f565b67ffffffffffffffff81111561101157611010610b5f565b5b61101b8254610d0a565b611026828285610f58565b5f601f831160018114611053575f8415611041578287015490505b61104b8582610fc6565b8655506110bd565b601f19841661106187610e44565b965061106c86610e44565b5f5b828110156110935784890154825560018201915060018501945060208101905061106e565b868310156110b057848901546110ac601f891682610faa565b8355505b6001600288020188555050505b5050505050505b565b7f4e487b71000000000000000000000000000000000000000000000000000000005f52603160045260245ffd5b7f6d757374206265206f776e657220746f2063616c6c20746869732066756e63745f8201527f696f6e0000000000000000000000000000000000000000000000000000000000602082015250565b5f61114d602383610a15565b9150611158826110f3565b604082019050919050565b5f6020820190508181035f83015261117a81611141565b9050919050565b7f7072696365206d7573742062652067726561746572207468616e2030000000005f82015250565b5f6111b5601c83610a15565b91506111c082611181565b602082019050919050565b5f6020820190508181035f8301526111e2816111a9565b9050919050565b6111f282610a0b565b67ffffffffffffffff81111561120b5761120a610b5f565b5b6112158254610d0a565b611220828285610f58565b5f60209050601f831160018114611251575f841561123f578287015190505b6112498582610fc6565b8655506112b0565b601f19841661125f86610e44565b5f5b8281101561128657848901518255600182019150602085019450602081019050611261565b868310156112a3578489015161129f601f891682610faa565b8355505b6001600288020188555050505b505050505050565b7f676f616c20686173206e6f74206265656e2072656163686564000000000000005f82015250565b5f6112ec601983610a15565b91506112f7826112b8565b602082019050919050565b5f6020820190508181035f830152611319816112e0565b9050919050565b7f706c6561736520616d6f756e74206d75737420626520657161756c20746f20745f8201527f6965722073656c65637465640000000000000000000000000000000000000000602082015250565b5f61137a602c83610a15565b915061138582611320565b604082019050919050565b5f6020820190508181035f8301526113a78161136e565b9050919050565b7f63616d706167696e2068617320656e64656400000000000000000000000000005f82015250565b5f6113e2601283610a15565b91506113ed826113ae565b602082019050919050565b5f6020820190508181035f83015261140f816113d6565b9050919050565b5f611420826109ad565b915061142b836109ad565b925082820190508082111561144357611442610da2565b5b9291505056fea2646970667358221220f0b6856f5101f19f708bfe1dfbde51a07489f954cdcf929c31b0e50ee10d4b3964736f6c634300081a0033",
			"opcodes": "PUSH1 0x80 PUSH1 0x40 MSTORE CALLVALUE DUP1 ISZERO PUSH2 0xF JUMPI PUSH0 DUP1 REVERT JUMPDEST POP PUSH1 0x40 MLOAD PUSH2 0x1B96 CODESIZE SUB DUP1 PUSH2 0x1B96 DUP4 CODECOPY DUP2 DUP2 ADD PUSH1 0x40 MSTORE DUP2 ADD SWAP1 PUSH2 0x31 SWAP2 SWAP1 PUSH2 0x282 JUMP JUMPDEST PUSH0 DUP3 GT PUSH2 0x73 JUMPI PUSH1 0x40 MLOAD PUSH32 0x8C379A000000000000000000000000000000000000000000000000000000000 DUP2 MSTORE PUSH1 0x4 ADD PUSH2 0x6A SWAP1 PUSH2 0x378 JUMP JUMPDEST PUSH1 0x40 MLOAD DUP1 SWAP2 SUB SWAP1 REVERT JUMPDEST DUP4 PUSH0 SWAP1 DUP2 PUSH2 0x81 SWAP2 SWAP1 PUSH2 0x59A JUMP JUMPDEST POP DUP3 PUSH1 0x1 SWAP1 DUP2 PUSH2 0x91 SWAP2 SWAP1 PUSH2 0x59A JUMP JUMPDEST POP DUP2 PUSH1 0x2 DUP2 SWAP1 SSTORE POP PUSH3 0x15180 DUP2 PUSH2 0xA8 SWAP2 SWAP1 PUSH2 0x696 JUMP JUMPDEST TIMESTAMP PUSH2 0xB3 SWAP2 SWAP1 PUSH2 0x6D7 JUMP JUMPDEST PUSH1 0x3 DUP2 SWAP1 SSTORE POP CALLER PUSH1 0x4 PUSH0 PUSH2 0x100 EXP DUP2 SLOAD DUP2 PUSH20 0xFFFFFFFFFFFFFFFFFFFFFFFFFFFFFFFFFFFFFFFF MUL NOT AND SWAP1 DUP4 PUSH20 0xFFFFFFFFFFFFFFFFFFFFFFFFFFFFFFFFFFFFFFFF AND MUL OR SWAP1 SSTORE POP POP POP POP POP PUSH2 0x70A JUMP JUMPDEST PUSH0 PUSH1 0x40 MLOAD SWAP1 POP SWAP1 JUMP JUMPDEST PUSH0 DUP1 REVERT JUMPDEST PUSH0 DUP1 REVERT JUMPDEST PUSH0 DUP1 REVERT JUMPDEST PUSH0 DUP1 REVERT JUMPDEST PUSH0 PUSH1 0x1F NOT PUSH1 0x1F DUP4 ADD AND SWAP1 POP SWAP2 SWAP1 POP JUMP JUMPDEST PUSH32 0x4E487B7100000000000000000000000000000000000000000000000000000000 PUSH0 MSTORE PUSH1 0x41 PUSH1 0x4 MSTORE PUSH1 0x24 PUSH0 REVERT JUMPDEST PUSH2 0x161 DUP3 PUSH2 0x11B JUMP JUMPDEST DUP2 ADD DUP2 DUP2 LT PUSH8 0xFFFFFFFFFFFFFFFF DUP3 GT OR ISZERO PUSH2 0x180 JUMPI PUSH2 0x17F PUSH2 0x12B JUMP JUMPDEST JUMPDEST DUP1 PUSH1 0x40 MSTORE POP POP POP JUMP JUMPDEST PUSH0 PUSH2 0x192 PUSH2 0x102 JUMP JUMPDEST SWAP1 POP PUSH2 0x19E DUP3 DUP3 PUSH2 0x158 JUMP JUMPDEST SWAP2 SWAP1 POP JUMP JUMPDEST PUSH0 PUSH8 0xFFFFFFFFFFFFFFFF DUP3 GT ISZERO PUSH2 0x1BD JUMPI PUSH2 0x1BC PUSH2 0x12B JUMP JUMPDEST JUMPDEST PUSH2 0x1C6 DUP3 PUSH2 0x11B JUMP JUMPDEST SWAP1 POP PUSH1 0x20 DUP2 ADD SWAP1 POP SWAP2 SWAP1 POP JUMP JUMPDEST DUP3 DUP2 DUP4 MCOPY PUSH0 DUP4 DUP4 ADD MSTORE POP POP POP JUMP JUMPDEST PUSH0 PUSH2 0x1F3 PUSH2 0x1EE DUP5 PUSH2 0x1A3 JUMP JUMPDEST PUSH2 0x189 JUMP JUMPDEST SWAP1 POP DUP3 DUP2 MSTORE PUSH1 0x20 DUP2 ADD DUP5 DUP5 DUP5 ADD GT ISZERO PUSH2 0x20F JUMPI PUSH2 0x20E PUSH2 0x117 JUMP JUMPDEST JUMPDEST PUSH2 0x21A DUP5 DUP3 DUP6 PUSH2 0x1D3 JUMP JUMPDEST POP SWAP4 SWAP3 POP POP POP JUMP JUMPDEST PUSH0 DUP3 PUSH1 0x1F DUP4 ADD SLT PUSH2 0x236 JUMPI PUSH2 0x235 PUSH2 0x113 JUMP JUMPDEST JUMPDEST DUP2 MLOAD PUSH2 0x246 DUP5 DUP3 PUSH1 0x20 DUP7 ADD PUSH2 0x1E1 JUMP JUMPDEST SWAP2 POP POP SWAP3 SWAP2 POP POP JUMP JUMPDEST PUSH0 DUP2 SWAP1 POP SWAP2 SWAP1 POP JUMP JUMPDEST PUSH2 0x261 DUP2 PUSH2 0x24F JUMP JUMPDEST DUP2 EQ PUSH2 0x26B JUMPI PUSH0 DUP1 REVERT JUMPDEST POP JUMP JUMPDEST PUSH0 DUP2 MLOAD SWAP1 POP PUSH2 0x27C DUP2 PUSH2 0x258 JUMP JUMPDEST SWAP3 SWAP2 POP POP JUMP JUMPDEST PUSH0 DUP1 PUSH0 DUP1 PUSH1 0x80 DUP6 DUP8 SUB SLT ISZERO PUSH2 0x29A JUMPI PUSH2 0x299 PUSH2 0x10B JUMP JUMPDEST JUMPDEST PUSH0 DUP6 ADD MLOAD PUSH8 0xFFFFFFFFFFFFFFFF DUP2 GT ISZERO PUSH2 0x2B7 JUMPI PUSH2 0x2B6 PUSH2 0x10F JUMP JUMPDEST JUMPDEST PUSH2 0x2C3 DUP8 DUP3 DUP9 ADD PUSH2 0x222 JUMP JUMPDEST SWAP5 POP POP PUSH1 0x20 DUP6 ADD MLOAD PUSH8 0xFFFFFFFFFFFFFFFF DUP2 GT ISZERO PUSH2 0x2E4 JUMPI PUSH2 0x2E3 PUSH2 0x10F JUMP JUMPDEST JUMPDEST PUSH2 0x2F0 DUP8 DUP3 DUP9 ADD PUSH2 0x222 JUMP JUMPDEST SWAP4 POP POP PUSH1 0x40 PUSH2 0x301 DUP8 DUP3 DUP9 ADD PUSH2 0x26E JUMP JUMPDEST SWAP3 POP POP PUSH1 0x60 PUSH2 0x312 DUP8 DUP3 DUP9 ADD PUSH2 0x26E JUMP JUMPDEST SWAP2 POP POP SWAP3 SWAP6 SWAP2 SWAP5 POP SWAP3 POP JUMP JUMPDEST PUSH0 DUP3 DUP3 MSTORE PUSH1 0x20 DUP3 ADD SWAP1 POP SWAP3 SWAP2 POP POP JUMP JUMPDEST PUSH32 0x476F616C206D7573742062652067726561746572207468616E207A65726F0000 PUSH0 DUP3 ADD MSTORE POP JUMP JUMPDEST PUSH0 PUSH2 0x362 PUSH1 0x1E DUP4 PUSH2 0x31E JUMP JUMPDEST SWAP2 POP PUSH2 0x36D DUP3 PUSH2 0x32E JUMP JUMPDEST PUSH1 0x20 DUP3 ADD SWAP1 POP SWAP2 SWAP1 POP JUMP JUMPDEST PUSH0 PUSH1 0x20 DUP3 ADD SWAP1 POP DUP2 DUP2 SUB PUSH0 DUP4 ADD MSTORE PUSH2 0x38F DUP2 PUSH2 0x356 JUMP JUMPDEST SWAP1 POP SWAP2 SWAP1 POP JUMP JUMPDEST PUSH0 DUP2 MLOAD SWAP1 POP SWAP2 SWAP1 POP JUMP JUMPDEST PUSH32 0x4E487B7100000000000000000000000000000000000000000000000000000000 PUSH0 MSTORE PUSH1 0x22 PUSH1 0x4 MSTORE PUSH1 0x24 PUSH0 REVERT JUMPDEST PUSH0 PUSH1 0x2 DUP3 DIV SWAP1 POP PUSH1 0x1 DUP3 AND DUP1 PUSH2 0x3E4 JUMPI PUSH1 0x7F DUP3 AND SWAP2 POP JUMPDEST PUSH1 0x20 DUP3 LT DUP2 SUB PUSH2 0x3F7 JUMPI PUSH2 0x3F6 PUSH2 0x3A0 JUMP JUMPDEST JUMPDEST POP SWAP2 SWAP1 POP JUMP JUMPDEST PUSH0 DUP2 SWAP1 POP DUP2 PUSH0 MSTORE PUSH1 0x20 PUSH0 KECCAK256 SWAP1 POP SWAP2 SWAP1 POP JUMP JUMPDEST PUSH0 PUSH1 0x20 PUSH1 0x1F DUP4 ADD DIV SWAP1 POP SWAP2 SWAP1 POP JUMP JUMPDEST PUSH0 DUP3 DUP3 SHL SWAP1 POP SWAP3 SWAP2 POP POP JUMP JUMPDEST PUSH0 PUSH1 0x8 DUP4 MUL PUSH2 0x459 PUSH32 0xFFFFFFFFFFFFFFFFFFFFFFFFFFFFFFFFFFFFFFFFFFFFFFFFFFFFFFFFFFFFFFFF DUP3 PUSH2 0x41E JUMP JUMPDEST PUSH2 0x463 DUP7 DUP4 PUSH2 0x41E JUMP JUMPDEST SWAP6 POP DUP1 NOT DUP5 AND SWAP4 POP DUP1 DUP7 AND DUP5 OR SWAP3 POP POP POP SWAP4 SWAP3 POP POP POP JUMP JUMPDEST PUSH0 DUP2 SWAP1 POP SWAP2 SWAP1 POP JUMP JUMPDEST PUSH0 PUSH2 0x49E PUSH2 0x499 PUSH2 0x494 DUP5 PUSH2 0x24F JUMP JUMPDEST PUSH2 0x47B JUMP JUMPDEST PUSH2 0x24F JUMP JUMPDEST SWAP1 POP SWAP2 SWAP1 POP JUMP JUMPDEST PUSH0 DUP2 SWAP1 POP SWAP2 SWAP1 POP JUMP JUMPDEST PUSH2 0x4B7 DUP4 PUSH2 0x484 JUMP JUMPDEST PUSH2 0x4CB PUSH2 0x4C3 DUP3 PUSH2 0x4A5 JUMP JUMPDEST DUP5 DUP5 SLOAD PUSH2 0x42A JUMP JUMPDEST DUP3 SSTORE POP POP POP POP JUMP JUMPDEST PUSH0 SWAP1 JUMP JUMPDEST PUSH2 0x4DF PUSH2 0x4D3 JUMP JUMPDEST PUSH2 0x4EA DUP2 DUP5 DUP5 PUSH2 0x4AE JUMP JUMPDEST POP POP POP JUMP JUMPDEST JUMPDEST DUP2 DUP2 LT ISZERO PUSH2 0x50D JUMPI PUSH2 0x502 PUSH0 DUP3 PUSH2 0x4D7 JUMP JUMPDEST PUSH1 0x1 DUP2 ADD SWAP1 POP PUSH2 0x4F0 JUMP JUMPDEST POP POP JUMP JUMPDEST PUSH1 0x1F DUP3 GT ISZERO PUSH2 0x552 JUMPI PUSH2 0x523 DUP2 PUSH2 0x3FD JUMP JUMPDEST PUSH2 0x52C DUP5 PUSH2 0x40F JUMP JUMPDEST DUP2 ADD PUSH1 0x20 DUP6 LT ISZERO PUSH2 0x53B JUMPI DUP2 SWAP1 POP JUMPDEST PUSH2 0x54F PUSH2 0x547 DUP6 PUSH2 0x40F JUMP JUMPDEST DUP4 ADD DUP3 PUSH2 0x4EF JUMP JUMPDEST POP POP JUMPDEST POP POP POP JUMP JUMPDEST PUSH0 DUP3 DUP3 SHR SWAP1 POP SWAP3 SWAP2 POP POP JUMP JUMPDEST PUSH0 PUSH2 0x572 PUSH0 NOT DUP5 PUSH1 0x8 MUL PUSH2 0x557 JUMP JUMPDEST NOT DUP1 DUP4 AND SWAP2 POP POP SWAP3 SWAP2 POP POP JUMP JUMPDEST PUSH0 PUSH2 0x58A DUP4 DUP4 PUSH2 0x563 JUMP JUMPDEST SWAP2 POP DUP3 PUSH1 0x2 MUL DUP3 OR SWAP1 POP SWAP3 SWAP2 POP POP JUMP JUMPDEST PUSH2 0x5A3 DUP3 PUSH2 0x396 JUMP JUMPDEST PUSH8 0xFFFFFFFFFFFFFFFF DUP2 GT ISZERO PUSH2 0x5BC JUMPI PUSH2 0x5BB PUSH2 0x12B JUMP JUMPDEST JUMPDEST PUSH2 0x5C6 DUP3 SLOAD PUSH2 0x3CD JUMP JUMPDEST PUSH2 0x5D1 DUP3 DUP3 DUP6 PUSH2 0x511 JUMP JUMPDEST PUSH0 PUSH1 0x20 SWAP1 POP PUSH1 0x1F DUP4 GT PUSH1 0x1 DUP2 EQ PUSH2 0x602 JUMPI PUSH0 DUP5 ISZERO PUSH2 0x5F0 JUMPI DUP3 DUP8 ADD MLOAD SWAP1 POP JUMPDEST PUSH2 0x5FA DUP6 DUP3 PUSH2 0x57F JUMP JUMPDEST DUP7 SSTORE POP PUSH2 0x661 JUMP JUMPDEST PUSH1 0x1F NOT DUP5 AND PUSH2 0x610 DUP7 PUSH2 0x3FD JUMP JUMPDEST PUSH0 JUMPDEST DUP3 DUP2 LT ISZERO PUSH2 0x637 JUMPI DUP5 DUP10 ADD MLOAD DUP3 SSTORE PUSH1 0x1 DUP3 ADD SWAP2 POP PUSH1 0x20 DUP6 ADD SWAP5 POP PUSH1 0x20 DUP2 ADD SWAP1 POP PUSH2 0x612 JUMP JUMPDEST DUP7 DUP4 LT ISZERO PUSH2 0x654 JUMPI DUP5 DUP10 ADD MLOAD PUSH2 0x650 PUSH1 0x1F DUP10 AND DUP3 PUSH2 0x563 JUMP JUMPDEST DUP4 SSTORE POP JUMPDEST PUSH1 0x1 PUSH1 0x2 DUP9 MUL ADD DUP9 SSTORE POP POP POP JUMPDEST POP POP POP POP POP POP JUMP JUMPDEST PUSH32 0x4E487B7100000000000000000000000000000000000000000000000000000000 PUSH0 MSTORE PUSH1 0x11 PUSH1 0x4 MSTORE PUSH1 0x24 PUSH0 REVERT JUMPDEST PUSH0 PUSH2 0x6A0 DUP3 PUSH2 0x24F JUMP JUMPDEST SWAP2 POP PUSH2 0x6AB DUP4 PUSH2 0x24F JUMP JUMPDEST SWAP3 POP DUP3 DUP3 MUL PUSH2 0x6B9 DUP2 PUSH2 0x24F JUMP JUMPDEST SWAP2 POP DUP3 DUP3 DIV DUP5 EQ DUP4 ISZERO OR PUSH2 0x6D0 JUMPI PUSH2 0x6CF PUSH2 0x669 JUMP JUMPDEST JUMPDEST POP SWAP3 SWAP2 POP POP JUMP JUMPDEST PUSH0 PUSH2 0x6E1 DUP3 PUSH2 0x24F JUMP JUMPDEST SWAP2 POP PUSH2 0x6EC DUP4 PUSH2 0x24F JUMP JUMPDEST SWAP3 POP DUP3 DUP3 ADD SWAP1 POP DUP1 DUP3 GT ISZERO PUSH2 0x704 JUMPI PUSH2 0x703 PUSH2 0x669 JUMP JUMPDEST JUMPDEST SWAP3 SWAP2 POP POP JUMP JUMPDEST PUSH2 0x147F DUP1 PUSH2 0x717 PUSH0 CODECOPY PUSH0 RETURN INVALID PUSH1 0x80 PUSH1 0x40 MSTORE PUSH1 0x4 CALLDATASIZE LT PUSH2 0x9B JUMPI PUSH0 CALLDATALOAD PUSH1 0xE0 SHR DUP1 PUSH4 0x7284E416 GT PUSH2 0x63 JUMPI DUP1 PUSH4 0x7284E416 EQ PUSH2 0x185 JUMPI DUP1 PUSH4 0x7497211B EQ PUSH2 0x1AF JUMPI DUP1 PUSH4 0x8DA5CB5B EQ PUSH2 0x1D7 JUMPI DUP1 PUSH4 0x8ECE7B91 EQ PUSH2 0x201 JUMPI DUP1 PUSH4 0xAA3BA179 EQ PUSH2 0x229 JUMPI DUP1 PUSH4 0xCA1D209D EQ PUSH2 0x23F JUMPI PUSH2 0x9B JUMP JUMPDEST DUP1 PUSH4 0x39AF9EB EQ PUSH2 0x9F JUMPI DUP1 PUSH4 0x6FDDE03 EQ PUSH2 0xDD JUMPI DUP1 PUSH4 0x29DCB0CF EQ PUSH2 0x107 JUMPI DUP1 PUSH4 0x40193883 EQ PUSH2 0x131 JUMPI DUP1 PUSH4 0x6F9FB98A EQ PUSH2 0x15B JUMPI JUMPDEST PUSH0 DUP1 REVERT JUMPDEST CALLVALUE DUP1 ISZERO PUSH2 0xAA JUMPI PUSH0 DUP1 REVERT JUMPDEST POP PUSH2 0xC5 PUSH1 0x4 DUP1 CALLDATASIZE SUB DUP2 ADD SWAP1 PUSH2 0xC0 SWAP2 SWAP1 PUSH2 0x9E0 JUMP JUMPDEST PUSH2 0x25B JUMP JUMPDEST PUSH1 0x40 MLOAD PUSH2 0xD4 SWAP4 SWAP3 SWAP2 SWAP1 PUSH2 0xA8A JUMP JUMPDEST PUSH1 0x40 MLOAD DUP1 SWAP2 SUB SWAP1 RETURN JUMPDEST CALLVALUE DUP1 ISZERO PUSH2 0xE8 JUMPI PUSH0 DUP1 REVERT JUMPDEST POP PUSH2 0xF1 PUSH2 0x316 JUMP JUMPDEST PUSH1 0x40 MLOAD PUSH2 0xFE SWAP2 SWAP1 PUSH2 0xAC6 JUMP JUMPDEST PUSH1 0x40 MLOAD DUP1 SWAP2 SUB SWAP1 RETURN JUMPDEST CALLVALUE DUP1 ISZERO PUSH2 0x112 JUMPI PUSH0 DUP1 REVERT JUMPDEST POP PUSH2 0x11B PUSH2 0x3A1 JUMP JUMPDEST PUSH1 0x40 MLOAD PUSH2 0x128 SWAP2 SWAP1 PUSH2 0xAE6 JUMP JUMPDEST PUSH1 0x40 MLOAD DUP1 SWAP2 SUB SWAP1 RETURN JUMPDEST CALLVALUE DUP1 ISZERO PUSH2 0x13C JUMPI PUSH0 DUP1 REVERT JUMPDEST POP PUSH2 0x145 PUSH2 0x3A7 JUMP JUMPDEST PUSH1 0x40 MLOAD PUSH2 0x152 SWAP2 SWAP1 PUSH2 0xAE6 JUMP JUMPDEST PUSH1 0x40 MLOAD DUP1 SWAP2 SUB SWAP1 RETURN JUMPDEST CALLVALUE DUP1 ISZERO PUSH2 0x166 JUMPI PUSH0 DUP1 REVERT JUMPDEST POP PUSH2 0x16F PUSH2 0x3AD JUMP JUMPDEST PUSH1 0x40 MLOAD PUSH2 0x17C SWAP2 SWAP1 PUSH2 0xAE6 JUMP JUMPDEST PUSH1 0x40 MLOAD DUP1 SWAP2 SUB SWAP1 RETURN JUMPDEST CALLVALUE DUP1 ISZERO PUSH2 0x190 JUMPI PUSH0 DUP1 REVERT JUMPDEST POP PUSH2 0x199 PUSH2 0x3B4 JUMP JUMPDEST PUSH1 0x40 MLOAD PUSH2 0x1A6 SWAP2 SWAP1 PUSH2 0xAC6 JUMP JUMPDEST PUSH1 0x40 MLOAD DUP1 SWAP2 SUB SWAP1 RETURN JUMPDEST CALLVALUE DUP1 ISZERO PUSH2 0x1BA JUMPI PUSH0 DUP1 REVERT JUMPDEST POP PUSH2 0x1D5 PUSH1 0x4 DUP1 CALLDATASIZE SUB DUP2 ADD SWAP1 PUSH2 0x1D0 SWAP2 SWAP1 PUSH2 0x9E0 JUMP JUMPDEST PUSH2 0x440 JUMP JUMPDEST STOP JUMPDEST CALLVALUE DUP1 ISZERO PUSH2 0x1E2 JUMPI PUSH0 DUP1 REVERT JUMPDEST POP PUSH2 0x1EB PUSH2 0x54A JUMP JUMPDEST PUSH1 0x40 MLOAD PUSH2 0x1F8 SWAP2 SWAP1 PUSH2 0xB3E JUMP JUMPDEST PUSH1 0x40 MLOAD DUP1 SWAP2 SUB SWAP1 RETURN JUMPDEST CALLVALUE DUP1 ISZERO PUSH2 0x20C JUMPI PUSH0 DUP1 REVERT JUMPDEST POP PUSH2 0x227 PUSH1 0x4 DUP1 CALLDATASIZE SUB DUP2 ADD SWAP1 PUSH2 0x222 SWAP2 SWAP1 PUSH2 0xC83 JUMP JUMPDEST PUSH2 0x56F JUMP JUMPDEST STOP JUMPDEST CALLVALUE DUP1 ISZERO PUSH2 0x234 JUMPI PUSH0 DUP1 REVERT JUMPDEST POP PUSH2 0x23D PUSH2 0x6B1 JUMP JUMPDEST STOP JUMPDEST PUSH2 0x259 PUSH1 0x4 DUP1 CALLDATASIZE SUB DUP2 ADD SWAP1 PUSH2 0x254 SWAP2 SWAP1 PUSH2 0x9E0 JUMP JUMPDEST PUSH2 0x7D0 JUMP JUMPDEST STOP JUMPDEST PUSH1 0x5 DUP2 DUP2 SLOAD DUP2 LT PUSH2 0x26A JUMPI PUSH0 DUP1 REVERT JUMPDEST SWAP1 PUSH0 MSTORE PUSH1 0x20 PUSH0 KECCAK256 SWAP1 PUSH1 0x3 MUL ADD PUSH0 SWAP2 POP SWAP1 POP DUP1 PUSH0 ADD DUP1 SLOAD PUSH2 0x289 SWAP1 PUSH2 0xD0A JUMP JUMPDEST DUP1 PUSH1 0x1F ADD PUSH1 0x20 DUP1 SWAP2 DIV MUL PUSH1 0x20 ADD PUSH1 0x40 MLOAD SWAP1 DUP2 ADD PUSH1 0x40 MSTORE DUP1 SWAP3 SWAP2 SWAP1 DUP2 DUP2 MSTORE PUSH1 0x20 ADD DUP3 DUP1 SLOAD PUSH2 0x2B5 SWAP1 PUSH2 0xD0A JUMP JUMPDEST DUP1 ISZERO PUSH2 0x300 JUMPI DUP1 PUSH1 0x1F LT PUSH2 0x2D7 JUMPI PUSH2 0x100 DUP1 DUP4 SLOAD DIV MUL DUP4 MSTORE SWAP2 PUSH1 0x20 ADD SWAP2 PUSH2 0x300 JUMP JUMPDEST DUP3 ADD SWAP2 SWAP1 PUSH0 MSTORE PUSH1 0x20 PUSH0 KECCAK256 SWAP1 JUMPDEST DUP2 SLOAD DUP2 MSTORE SWAP1 PUSH1 0x1 ADD SWAP1 PUSH1 0x20 ADD DUP1 DUP4 GT PUSH2 0x2E3 JUMPI DUP3 SWAP1 SUB PUSH1 0x1F AND DUP3 ADD SWAP2 JUMPDEST POP POP POP POP POP SWAP1 DUP1 PUSH1 0x1 ADD SLOAD SWAP1 DUP1 PUSH1 0x2 ADD SLOAD SWAP1 POP DUP4 JUMP JUMPDEST PUSH0 DUP1 SLOAD PUSH2 0x322 SWAP1 PUSH2 0xD0A JUMP JUMPDEST DUP1 PUSH1 0x1F ADD PUSH1 0x20 DUP1 SWAP2 DIV MUL PUSH1 0x20 ADD PUSH1 0x40 MLOAD SWAP1 DUP2 ADD PUSH1 0x40 MSTORE DUP1 SWAP3 SWAP2 SWAP1 DUP2 DUP2 MSTORE PUSH1 0x20 ADD DUP3 DUP1 SLOAD PUSH2 0x34E SWAP1 PUSH2 0xD0A JUMP JUMPDEST DUP1 ISZERO PUSH2 0x399 JUMPI DUP1 PUSH1 0x1F LT PUSH2 0x370 JUMPI PUSH2 0x100 DUP1 DUP4 SLOAD DIV MUL DUP4 MSTORE SWAP2 PUSH1 0x20 ADD SWAP2 PUSH2 0x399 JUMP JUMPDEST DUP3 ADD SWAP2 SWAP1 PUSH0 MSTORE PUSH1 0x20 PUSH0 KECCAK256 SWAP1 JUMPDEST DUP2 SLOAD DUP2 MSTORE SWAP1 PUSH1 0x1 ADD SWAP1 PUSH1 0x20 ADD DUP1 DUP4 GT PUSH2 0x37C JUMPI DUP3 SWAP1 SUB PUSH1 0x1F AND DUP3 ADD SWAP2 JUMPDEST POP POP POP POP POP DUP2 JUMP JUMPDEST PUSH1 0x3 SLOAD DUP2 JUMP JUMPDEST PUSH1 0x2 SLOAD DUP2 JUMP JUMPDEST PUSH0 SELFBALANCE SWAP1 POP SWAP1 JUMP JUMPDEST PUSH1 0x1 DUP1 SLOAD PUSH2 0x3C1 SWAP1 PUSH2 0xD0A JUMP JUMPDEST DUP1 PUSH1 0x1F ADD PUSH1 0x20 DUP1 SWAP2 DIV MUL PUSH1 0x20 ADD PUSH1 0x40 MLOAD SWAP1 DUP2 ADD PUSH1 0x40 MSTORE DUP1 SWAP3 SWAP2 SWAP1 DUP2 DUP2 MSTORE PUSH1 0x20 ADD DUP3 DUP1 SLOAD PUSH2 0x3ED SWAP1 PUSH2 0xD0A JUMP JUMPDEST DUP1 ISZERO PUSH2 0x438 JUMPI DUP1 PUSH1 0x1F LT PUSH2 0x40F JUMPI PUSH2 0x100 DUP1 DUP4 SLOAD DIV MUL DUP4 MSTORE SWAP2 PUSH1 0x20 ADD SWAP2 PUSH2 0x438 JUMP JUMPDEST DUP3 ADD SWAP2 SWAP1 PUSH0 MSTORE PUSH1 0x20 PUSH0 KECCAK256 SWAP1 JUMPDEST DUP2 SLOAD DUP2 MSTORE SWAP1 PUSH1 0x1 ADD SWAP1 PUSH1 0x20 ADD DUP1 DUP4 GT PUSH2 0x41B JUMPI DUP3 SWAP1 SUB PUSH1 0x1F AND DUP3 ADD SWAP2 JUMPDEST POP POP POP POP POP DUP2 JUMP JUMPDEST PUSH1 0x5 DUP1 SLOAD SWAP1 POP DUP2 LT PUSH2 0x487 JUMPI PUSH1 0x40 MLOAD PUSH32 0x8C379A000000000000000000000000000000000000000000000000000000000 DUP2 MSTORE PUSH1 0x4 ADD PUSH2 0x47E SWAP1 PUSH2 0xD84 JUMP JUMPDEST PUSH1 0x40 MLOAD DUP1 SWAP2 SUB SWAP1 REVERT JUMPDEST PUSH1 0x5 PUSH1 0x1 PUSH1 0x5 DUP1 SLOAD SWAP1 POP PUSH2 0x49B SWAP2 SWAP1 PUSH2 0xDCF JUMP JUMPDEST DUP2 SLOAD DUP2 LT PUSH2 0x4AC JUMPI PUSH2 0x4AB PUSH2 0xE02 JUMP JUMPDEST JUMPDEST SWAP1 PUSH0 MSTORE PUSH1 0x20 PUSH0 KECCAK256 SWAP1 PUSH1 0x3 MUL ADD PUSH1 0x5 DUP3 DUP2 SLOAD DUP2 LT PUSH2 0x4CC JUMPI PUSH2 0x4CB PUSH2 0xE02 JUMP JUMPDEST JUMPDEST SWAP1 PUSH0 MSTORE PUSH1 0x20 PUSH0 KECCAK256 SWAP1 PUSH1 0x3 MUL ADD PUSH0 DUP3 ADD DUP2 PUSH0 ADD SWAP1 DUP2 PUSH2 0x4EA SWAP2 SWAP1 PUSH2 0xFE1 JUMP JUMPDEST POP PUSH1 0x1 DUP3 ADD SLOAD DUP2 PUSH1 0x1 ADD SSTORE PUSH1 0x2 DUP3 ADD SLOAD DUP2 PUSH1 0x2 ADD SSTORE SWAP1 POP POP PUSH1 0x5 DUP1 SLOAD DUP1 PUSH2 0x514 JUMPI PUSH2 0x513 PUSH2 0x10C6 JUMP JUMPDEST JUMPDEST PUSH1 0x1 SWAP1 SUB DUP2 DUP2 SWAP1 PUSH0 MSTORE PUSH1 0x20 PUSH0 KECCAK256 SWAP1 PUSH1 0x3 MUL ADD PUSH0 DUP1 DUP3 ADD PUSH0 PUSH2 0x535 SWAP2 SWAP1 PUSH2 0x944 JUMP JUMPDEST PUSH1 0x1 DUP3 ADD PUSH0 SWAP1 SSTORE PUSH1 0x2 DUP3 ADD PUSH0 SWAP1 SSTORE POP POP SWAP1 SSTORE POP JUMP JUMPDEST PUSH1 0x4 PUSH0 SWAP1 SLOAD SWAP1 PUSH2 0x100 EXP SWAP1 DIV PUSH20 0xFFFFFFFFFFFFFFFFFFFFFFFFFFFFFFFFFFFFFFFF AND DUP2 JUMP JUMPDEST PUSH1 0x4 PUSH0 SWAP1 SLOAD SWAP1 PUSH2 0x100 EXP SWAP1 DIV PUSH20 0xFFFFFFFFFFFFFFFFFFFFFFFFFFFFFFFFFFFFFFFF AND PUSH20 0xFFFFFFFFFFFFFFFFFFFFFFFFFFFFFFFFFFFFFFFF AND CALLER PUSH20 0xFFFFFFFFFFFFFFFFFFFFFFFFFFFFFFFFFFFFFFFF AND EQ PUSH2 0x5FE JUMPI PUSH1 0x40 MLOAD PUSH32 0x8C379A000000000000000000000000000000000000000000000000000000000 DUP2 MSTORE PUSH1 0x4 ADD PUSH2 0x5F5 SWAP1 PUSH2 0x1163 JUMP JUMPDEST PUSH1 0x40 MLOAD DUP1 SWAP2 SUB SWAP1 REVERT JUMPDEST PUSH0 DUP2 GT PUSH2 0x640 JUMPI PUSH1 0x40 MLOAD PUSH32 0x8C379A000000000000000000000000000000000000000000000000000000000 DUP2 MSTORE PUSH1 0x4 ADD PUSH2 0x637 SWAP1 PUSH2 0x11CB JUMP JUMPDEST PUSH1 0x40 MLOAD DUP1 SWAP2 SUB SWAP1 REVERT JUMPDEST PUSH1 0x5 PUSH1 0x40 MLOAD DUP1 PUSH1 0x60 ADD PUSH1 0x40 MSTORE DUP1 DUP5 DUP2 MSTORE PUSH1 0x20 ADD DUP4 DUP2 MSTORE PUSH1 0x20 ADD PUSH0 DUP2 MSTORE POP SWAP1 DUP1 PUSH1 0x1 DUP2 SLOAD ADD DUP1 DUP3 SSTORE DUP1 SWAP2 POP POP PUSH1 0x1 SWAP1 SUB SWAP1 PUSH0 MSTORE PUSH1 0x20 PUSH0 KECCAK256 SWAP1 PUSH1 0x3 MUL ADD PUSH0 SWAP1 SWAP2 SWAP1 SWAP2 SWAP1 SWAP2 POP PUSH0 DUP3 ADD MLOAD DUP2 PUSH0 ADD SWAP1 DUP2 PUSH2 0x696 SWAP2 SWAP1 PUSH2 0x11E9 JUMP JUMPDEST POP PUSH1 0x20 DUP3 ADD MLOAD DUP2 PUSH1 0x1 ADD SSTORE PUSH1 0x40 DUP3 ADD MLOAD DUP2 PUSH1 0x2 ADD SSTORE POP POP POP POP JUMP JUMPDEST PUSH1 0x4 PUSH0 SWAP1 SLOAD SWAP1 PUSH2 0x100 EXP SWAP1 DIV PUSH20 0xFFFFFFFFFFFFFFFFFFFFFFFFFFFFFFFFFFFFFFFF AND PUSH20 0xFFFFFFFFFFFFFFFFFFFFFFFFFFFFFFFFFFFFFFFF AND CALLER PUSH20 0xFFFFFFFFFFFFFFFFFFFFFFFFFFFFFFFFFFFFFFFF AND EQ PUSH2 0x740 JUMPI PUSH1 0x40 MLOAD PUSH32 0x8C379A000000000000000000000000000000000000000000000000000000000 DUP2 MSTORE PUSH1 0x4 ADD PUSH2 0x737 SWAP1 PUSH2 0x1163 JUMP JUMPDEST PUSH1 0x40 MLOAD DUP1 SWAP2 SUB SWAP1 REVERT JUMPDEST PUSH1 0x2 SLOAD SELFBALANCE LT ISZERO PUSH2 0x785 JUMPI PUSH1 0x40 MLOAD PUSH32 0x8C379A000000000000000000000000000000000000000000000000000000000 DUP2 MSTORE PUSH1 0x4 ADD PUSH2 0x77C SWAP1 PUSH2 0x1302 JUMP JUMPDEST PUSH1 0x40 MLOAD DUP1 SWAP2 SUB SWAP1 REVERT JUMPDEST PUSH0 SELFBALANCE SWAP1 POP CALLER PUSH20 0xFFFFFFFFFFFFFFFFFFFFFFFFFFFFFFFFFFFFFFFF AND PUSH2 0x8FC DUP3 SWAP1 DUP2 ISZERO MUL SWAP1 PUSH1 0x40 MLOAD PUSH0 PUSH1 0x40 MLOAD DUP1 DUP4 SUB DUP2 DUP6 DUP9 DUP9 CALL SWAP4 POP POP POP POP ISZERO DUP1 ISZERO PUSH2 0x7CC JUMPI RETURNDATASIZE PUSH0 DUP1 RETURNDATACOPY RETURNDATASIZE PUSH0 REVERT JUMPDEST POP POP JUMP JUMPDEST PUSH0 PUSH1 0x5 DUP3 DUP2 SLOAD DUP2 LT PUSH2 0x7E5 JUMPI PUSH2 0x7E4 PUSH2 0xE02 JUMP JUMPDEST JUMPDEST SWAP1 PUSH0 MSTORE PUSH1 0x20 PUSH0 KECCAK256 SWAP1 PUSH1 0x3 MUL ADD PUSH1 0x1 ADD SLOAD SWAP1 POP DUP1 CALLVALUE EQ PUSH2 0x839 JUMPI PUSH1 0x40 MLOAD PUSH32 0x8C379A000000000000000000000000000000000000000000000000000000000 DUP2 MSTORE PUSH1 0x4 ADD PUSH2 0x830 SWAP1 PUSH2 0x1390 JUMP JUMPDEST PUSH1 0x40 MLOAD DUP1 SWAP2 SUB SWAP1 REVERT JUMPDEST PUSH1 0x3 SLOAD TIMESTAMP LT PUSH2 0x87D JUMPI PUSH1 0x40 MLOAD PUSH32 0x8C379A000000000000000000000000000000000000000000000000000000000 DUP2 MSTORE PUSH1 0x4 ADD PUSH2 0x874 SWAP1 PUSH2 0x13F8 JUMP JUMPDEST PUSH1 0x40 MLOAD DUP1 SWAP2 SUB SWAP1 REVERT JUMPDEST DUP2 PUSH1 0x5 DUP1 SLOAD SWAP1 POP GT PUSH2 0x8C4 JUMPI PUSH1 0x40 MLOAD PUSH32 0x8C379A000000000000000000000000000000000000000000000000000000000 DUP2 MSTORE PUSH1 0x4 ADD PUSH2 0x8BB SWAP1 PUSH2 0xD84 JUMP JUMPDEST PUSH1 0x40 MLOAD DUP1 SWAP2 SUB SWAP1 REVERT JUMPDEST DUP1 CALLVALUE EQ PUSH2 0x906 JUMPI PUSH1 0x40 MLOAD PUSH32 0x8C379A000000000000000000000000000000000000000000000000000000000 DUP2 MSTORE PUSH1 0x4 ADD PUSH2 0x8FD SWAP1 PUSH2 0x1390 JUMP JUMPDEST PUSH1 0x40 MLOAD DUP1 SWAP2 SUB SWAP1 REVERT JUMPDEST PUSH1 0x1 PUSH1 0x5 DUP4 DUP2 SLOAD DUP2 LT PUSH2 0x91C JUMPI PUSH2 0x91B PUSH2 0xE02 JUMP JUMPDEST JUMPDEST SWAP1 PUSH0 MSTORE PUSH1 0x20 PUSH0 KECCAK256 SWAP1 PUSH1 0x3 MUL ADD PUSH1 0x2 ADD PUSH0 DUP3 DUP3 SLOAD PUSH2 0x939 SWAP2 SWAP1 PUSH2 0x1416 JUMP JUMPDEST SWAP3 POP POP DUP2 SWAP1 SSTORE POP POP POP JUMP JUMPDEST POP DUP1 SLOAD PUSH2 0x950 SWAP1 PUSH2 0xD0A JUMP JUMPDEST PUSH0 DUP3 SSTORE DUP1 PUSH1 0x1F LT PUSH2 0x961 JUMPI POP PUSH2 0x97E JUMP JUMPDEST PUSH1 0x1F ADD PUSH1 0x20 SWAP1 DIV SWAP1 PUSH0 MSTORE PUSH1 0x20 PUSH0 KECCAK256 SWAP1 DUP2 ADD SWAP1 PUSH2 0x97D SWAP2 SWAP1 PUSH2 0x981 JUMP JUMPDEST JUMPDEST POP JUMP JUMPDEST JUMPDEST DUP1 DUP3 GT ISZERO PUSH2 0x998 JUMPI PUSH0 DUP2 PUSH0 SWAP1 SSTORE POP PUSH1 0x1 ADD PUSH2 0x982 JUMP JUMPDEST POP SWAP1 JUMP JUMPDEST PUSH0 PUSH1 0x40 MLOAD SWAP1 POP SWAP1 JUMP JUMPDEST PUSH0 DUP1 REVERT JUMPDEST PUSH0 DUP1 REVERT JUMPDEST PUSH0 DUP2 SWAP1 POP SWAP2 SWAP1 POP JUMP JUMPDEST PUSH2 0x9BF DUP2 PUSH2 0x9AD JUMP JUMPDEST DUP2 EQ PUSH2 0x9C9 JUMPI PUSH0 DUP1 REVERT JUMPDEST POP JUMP JUMPDEST PUSH0 DUP2 CALLDATALOAD SWAP1 POP PUSH2 0x9DA DUP2 PUSH2 0x9B6 JUMP JUMPDEST SWAP3 SWAP2 POP POP JUMP JUMPDEST PUSH0 PUSH1 0x20 DUP3 DUP5 SUB SLT ISZERO PUSH2 0x9F5 JUMPI PUSH2 0x9F4 PUSH2 0x9A5 JUMP JUMPDEST JUMPDEST PUSH0 PUSH2 0xA02 DUP5 DUP3 DUP6 ADD PUSH2 0x9CC JUMP JUMPDEST SWAP2 POP POP SWAP3 SWAP2 POP POP JUMP JUMPDEST PUSH0 DUP2 MLOAD SWAP1 POP SWAP2 SWAP1 POP JUMP JUMPDEST PUSH0 DUP3 DUP3 MSTORE PUSH1 0x20 DUP3 ADD SWAP1 POP SWAP3 SWAP2 POP POP JUMP JUMPDEST DUP3 DUP2 DUP4 MCOPY PUSH0 DUP4 DUP4 ADD MSTORE POP POP POP JUMP JUMPDEST PUSH0 PUSH1 0x1F NOT PUSH1 0x1F DUP4 ADD AND SWAP1 POP SWAP2 SWAP1 POP JUMP JUMPDEST PUSH0 PUSH2 0xA4D DUP3 PUSH2 0xA0B JUMP JUMPDEST PUSH2 0xA57 DUP2 DUP6 PUSH2 0xA15 JUMP JUMPDEST SWAP4 POP PUSH2 0xA67 DUP2 DUP6 PUSH1 0x20 DUP7 ADD PUSH2 0xA25 JUMP JUMPDEST PUSH2 0xA70 DUP2 PUSH2 0xA33 JUMP JUMPDEST DUP5 ADD SWAP2 POP POP SWAP3 SWAP2 POP POP JUMP JUMPDEST PUSH2 0xA84 DUP2 PUSH2 0x9AD JUMP JUMPDEST DUP3 MSTORE POP POP JUMP JUMPDEST PUSH0 PUSH1 0x60 DUP3 ADD SWAP1 POP DUP2 DUP2 SUB PUSH0 DUP4 ADD MSTORE PUSH2 0xAA2 DUP2 DUP7 PUSH2 0xA43 JUMP JUMPDEST SWAP1 POP PUSH2 0xAB1 PUSH1 0x20 DUP4 ADD DUP6 PUSH2 0xA7B JUMP JUMPDEST PUSH2 0xABE PUSH1 0x40 DUP4 ADD DUP5 PUSH2 0xA7B JUMP JUMPDEST SWAP5 SWAP4 POP POP POP POP JUMP JUMPDEST PUSH0 PUSH1 0x20 DUP3 ADD SWAP1 POP DUP2 DUP2 SUB PUSH0 DUP4 ADD MSTORE PUSH2 0xADE DUP2 DUP5 PUSH2 0xA43 JUMP JUMPDEST SWAP1 POP SWAP3 SWAP2 POP POP JUMP JUMPDEST PUSH0 PUSH1 0x20 DUP3 ADD SWAP1 POP PUSH2 0xAF9 PUSH0 DUP4 ADD DUP5 PUSH2 0xA7B JUMP JUMPDEST SWAP3 SWAP2 POP POP JUMP JUMPDEST PUSH0 PUSH20 0xFFFFFFFFFFFFFFFFFFFFFFFFFFFFFFFFFFFFFFFF DUP3 AND SWAP1 POP SWAP2 SWAP1 POP JUMP JUMPDEST PUSH0 PUSH2 0xB28 DUP3 PUSH2 0xAFF JUMP JUMPDEST SWAP1 POP SWAP2 SWAP1 POP JUMP JUMPDEST PUSH2 0xB38 DUP2 PUSH2 0xB1E JUMP JUMPDEST DUP3 MSTORE POP POP JUMP JUMPDEST PUSH0 PUSH1 0x20 DUP3 ADD SWAP1 POP PUSH2 0xB51 PUSH0 DUP4 ADD DUP5 PUSH2 0xB2F JUMP JUMPDEST SWAP3 SWAP2 POP POP JUMP JUMPDEST PUSH0 DUP1 REVERT JUMPDEST PUSH0 DUP1 REVERT JUMPDEST PUSH32 0x4E487B7100000000000000000000000000000000000000000000000000000000 PUSH0 MSTORE PUSH1 0x41 PUSH1 0x4 MSTORE PUSH1 0x24 PUSH0 REVERT JUMPDEST PUSH2 0xB95 DUP3 PUSH2 0xA33 JUMP JUMPDEST DUP2 ADD DUP2 DUP2 LT PUSH8 0xFFFFFFFFFFFFFFFF DUP3 GT OR ISZERO PUSH2 0xBB4 JUMPI PUSH2 0xBB3 PUSH2 0xB5F JUMP JUMPDEST JUMPDEST DUP1 PUSH1 0x40 MSTORE POP POP POP JUMP JUMPDEST PUSH0 PUSH2 0xBC6 PUSH2 0x99C JUMP JUMPDEST SWAP1 POP PUSH2 0xBD2 DUP3 DUP3 PUSH2 0xB8C JUMP JUMPDEST SWAP2 SWAP1 POP JUMP JUMPDEST PUSH0 PUSH8 0xFFFFFFFFFFFFFFFF DUP3 GT ISZERO PUSH2 0xBF1 JUMPI PUSH2 0xBF0 PUSH2 0xB5F JUMP JUMPDEST JUMPDEST PUSH2 0xBFA DUP3 PUSH2 0xA33 JUMP JUMPDEST SWAP1 POP PUSH1 0x20 DUP2 ADD SWAP1 POP SWAP2 SWAP1 POP JUMP JUMPDEST DUP3 DUP2 DUP4 CALLDATACOPY PUSH0 DUP4 DUP4 ADD MSTORE POP POP POP JUMP JUMPDEST PUSH0 PUSH2 0xC27 PUSH2 0xC22 DUP5 PUSH2 0xBD7 JUMP JUMPDEST PUSH2 0xBBD JUMP JUMPDEST SWAP1 POP DUP3 DUP2 MSTORE PUSH1 0x20 DUP2 ADD DUP5 DUP5 DUP5 ADD GT ISZERO PUSH2 0xC43 JUMPI PUSH2 0xC42 PUSH2 0xB5B JUMP JUMPDEST JUMPDEST PUSH2 0xC4E DUP5 DUP3 DUP6 PUSH2 0xC07 JUMP JUMPDEST POP SWAP4 SWAP3 POP POP POP JUMP JUMPDEST PUSH0 DUP3 PUSH1 0x1F DUP4 ADD SLT PUSH2 0xC6A JUMPI PUSH2 0xC69 PUSH2 0xB57 JUMP JUMPDEST JUMPDEST DUP2 CALLDATALOAD PUSH2 0xC7A DUP5 DUP3 PUSH1 0x20 DUP7 ADD PUSH2 0xC15 JUMP JUMPDEST SWAP2 POP POP SWAP3 SWAP2 POP POP JUMP JUMPDEST PUSH0 DUP1 PUSH1 0x40 DUP4 DUP6 SUB SLT ISZERO PUSH2 0xC99 JUMPI PUSH2 0xC98 PUSH2 0x9A5 JUMP JUMPDEST JUMPDEST PUSH0 DUP4 ADD CALLDATALOAD PUSH8 0xFFFFFFFFFFFFFFFF DUP2 GT ISZERO PUSH2 0xCB6 JUMPI PUSH2 0xCB5 PUSH2 0x9A9 JUMP JUMPDEST JUMPDEST PUSH2 0xCC2 DUP6 DUP3 DUP7 ADD PUSH2 0xC56 JUMP JUMPDEST SWAP3 POP POP PUSH1 0x20 PUSH2 0xCD3 DUP6 DUP3 DUP7 ADD PUSH2 0x9CC JUMP JUMPDEST SWAP2 POP POP SWAP3 POP SWAP3 SWAP1 POP JUMP JUMPDEST PUSH32 0x4E487B7100000000000000000000000000000000000000000000000000000000 PUSH0 MSTORE PUSH1 0x22 PUSH1 0x4 MSTORE PUSH1 0x24 PUSH0 REVERT JUMPDEST PUSH0 PUSH1 0x2 DUP3 DIV SWAP1 POP PUSH1 0x1 DUP3 AND DUP1 PUSH2 0xD21 JUMPI PUSH1 0x7F DUP3 AND SWAP2 POP JUMPDEST PUSH1 0x20 DUP3 LT DUP2 SUB PUSH2 0xD34 JUMPI PUSH2 0xD33 PUSH2 0xCDD JUMP JUMPDEST JUMPDEST POP SWAP2 SWAP1 POP JUMP JUMPDEST PUSH32 0x7469657220646F6573206E6F7420657869737400000000000000000000000000 PUSH0 DUP3 ADD MSTORE POP JUMP JUMPDEST PUSH0 PUSH2 0xD6E PUSH1 0x13 DUP4 PUSH2 0xA15 JUMP JUMPDEST SWAP2 POP PUSH2 0xD79 DUP3 PUSH2 0xD3A JUMP JUMPDEST PUSH1 0x20 DUP3 ADD SWAP1 POP SWAP2 SWAP1 POP JUMP JUMPDEST PUSH0 PUSH1 0x20 DUP3 ADD SWAP1 POP DUP2 DUP2 SUB PUSH0 DUP4 ADD MSTORE PUSH2 0xD9B DUP2 PUSH2 0xD62 JUMP JUMPDEST SWAP1 POP SWAP2 SWAP1 POP JUMP JUMPDEST PUSH32 0x4E487B7100000000000000000000000000000000000000000000000000000000 PUSH0 MSTORE PUSH1 0x11 PUSH1 0x4 MSTORE PUSH1 0x24 PUSH0 REVERT JUMPDEST PUSH0 PUSH2 0xDD9 DUP3 PUSH2 0x9AD JUMP JUMPDEST SWAP2 POP PUSH2 0xDE4 DUP4 PUSH2 0x9AD JUMP JUMPDEST SWAP3 POP DUP3 DUP3 SUB SWAP1 POP DUP2 DUP2 GT ISZERO PUSH2 0xDFC JUMPI PUSH2 0xDFB PUSH2 0xDA2 JUMP JUMPDEST JUMPDEST SWAP3 SWAP2 POP POP JUMP JUMPDEST PUSH32 0x4E487B7100000000000000000000000000000000000000000000000000000000 PUSH0 MSTORE PUSH1 0x32 PUSH1 0x4 MSTORE PUSH1 0x24 PUSH0 REVERT JUMPDEST PUSH0 DUP2 SLOAD SWAP1 POP PUSH2 0xE3D DUP2 PUSH2 0xD0A JUMP JUMPDEST SWAP1 POP SWAP2 SWAP1 POP JUMP JUMPDEST PUSH0 DUP2 SWAP1 POP DUP2 PUSH0 MSTORE PUSH1 0x20 PUSH0 KECCAK256 SWAP1 POP SWAP2 SWAP1 POP JUMP JUMPDEST PUSH0 PUSH1 0x20 PUSH1 0x1F DUP4 ADD DIV SWAP1 POP SWAP2 SWAP1 POP JUMP JUMPDEST PUSH0 DUP3 DUP3 SHL SWAP1 POP SWAP3 SWAP2 POP POP JUMP JUMPDEST PUSH0 PUSH1 0x8 DUP4 MUL PUSH2 0xEA0 PUSH32 0xFFFFFFFFFFFFFFFFFFFFFFFFFFFFFFFFFFFFFFFFFFFFFFFFFFFFFFFFFFFFFFFF DUP3 PUSH2 0xE65 JUMP JUMPDEST PUSH2 0xEAA DUP7 DUP4 PUSH2 0xE65 JUMP JUMPDEST SWAP6 POP DUP1 NOT DUP5 AND SWAP4 POP DUP1 DUP7 AND DUP5 OR SWAP3 POP POP POP SWAP4 SWAP3 POP POP POP JUMP JUMPDEST PUSH0 DUP2 SWAP1 POP SWAP2 SWAP1 POP JUMP JUMPDEST PUSH0 PUSH2 0xEE5 PUSH2 0xEE0 PUSH2 0xEDB DUP5 PUSH2 0x9AD JUMP JUMPDEST PUSH2 0xEC2 JUMP JUMPDEST PUSH2 0x9AD JUMP JUMPDEST SWAP1 POP SWAP2 SWAP1 POP JUMP JUMPDEST PUSH0 DUP2 SWAP1 POP SWAP2 SWAP1 POP JUMP JUMPDEST PUSH2 0xEFE DUP4 PUSH2 0xECB JUMP JUMPDEST PUSH2 0xF12 PUSH2 0xF0A DUP3 PUSH2 0xEEC JUMP JUMPDEST DUP5 DUP5 SLOAD PUSH2 0xE71 JUMP JUMPDEST DUP3 SSTORE POP POP POP POP JUMP JUMPDEST PUSH0 SWAP1 JUMP JUMPDEST PUSH2 0xF26 PUSH2 0xF1A JUMP JUMPDEST PUSH2 0xF31 DUP2 DUP5 DUP5 PUSH2 0xEF5 JUMP JUMPDEST POP POP POP JUMP JUMPDEST JUMPDEST DUP2 DUP2 LT ISZERO PUSH2 0xF54 JUMPI PUSH2 0xF49 PUSH0 DUP3 PUSH2 0xF1E JUMP JUMPDEST PUSH1 0x1 DUP2 ADD SWAP1 POP PUSH2 0xF37 JUMP JUMPDEST POP POP JUMP JUMPDEST PUSH1 0x1F DUP3 GT ISZERO PUSH2 0xF99 JUMPI PUSH2 0xF6A DUP2 PUSH2 0xE44 JUMP JUMPDEST PUSH2 0xF73 DUP5 PUSH2 0xE56 JUMP JUMPDEST DUP2 ADD PUSH1 0x20 DUP6 LT ISZERO PUSH2 0xF82 JUMPI DUP2 SWAP1 POP JUMPDEST PUSH2 0xF96 PUSH2 0xF8E DUP6 PUSH2 0xE56 JUMP JUMPDEST DUP4 ADD DUP3 PUSH2 0xF36 JUMP JUMPDEST POP POP JUMPDEST POP POP POP JUMP JUMPDEST PUSH0 DUP3 DUP3 SHR SWAP1 POP SWAP3 SWAP2 POP POP JUMP JUMPDEST PUSH0 PUSH2 0xFB9 PUSH0 NOT DUP5 PUSH1 0x8 MUL PUSH2 0xF9E JUMP JUMPDEST NOT DUP1 DUP4 AND SWAP2 POP POP SWAP3 SWAP2 POP POP JUMP JUMPDEST PUSH0 PUSH2 0xFD1 DUP4 DUP4 PUSH2 0xFAA JUMP JUMPDEST SWAP2 POP DUP3 PUSH1 0x2 MUL DUP3 OR SWAP1 POP SWAP3 SWAP2 POP POP JUMP JUMPDEST DUP2 DUP2 SUB PUSH2 0xFEF JUMPI POP POP PUSH2 0x10C4 JUMP JUMPDEST PUSH2 0xFF8 DUP3 PUSH2 0xE2F JUMP JUMPDEST PUSH8 0xFFFFFFFFFFFFFFFF DUP2 GT ISZERO PUSH2 0x1011 JUMPI PUSH2 0x1010 PUSH2 0xB5F JUMP JUMPDEST JUMPDEST PUSH2 0x101B DUP3 SLOAD PUSH2 0xD0A JUMP JUMPDEST PUSH2 0x1026 DUP3 DUP3 DUP6 PUSH2 0xF58 JUMP JUMPDEST PUSH0 PUSH1 0x1F DUP4 GT PUSH1 0x1 DUP2 EQ PUSH2 0x1053 JUMPI PUSH0 DUP5 ISZERO PUSH2 0x1041 JUMPI DUP3 DUP8 ADD SLOAD SWAP1 POP JUMPDEST PUSH2 0x104B DUP6 DUP3 PUSH2 0xFC6 JUMP JUMPDEST DUP7 SSTORE POP PUSH2 0x10BD JUMP JUMPDEST PUSH1 0x1F NOT DUP5 AND PUSH2 0x1061 DUP8 PUSH2 0xE44 JUMP JUMPDEST SWAP7 POP PUSH2 0x106C DUP7 PUSH2 0xE44 JUMP JUMPDEST PUSH0 JUMPDEST DUP3 DUP2 LT ISZERO PUSH2 0x1093 JUMPI DUP5 DUP10 ADD SLOAD DUP3 SSTORE PUSH1 0x1 DUP3 ADD SWAP2 POP PUSH1 0x1 DUP6 ADD SWAP5 POP PUSH1 0x20 DUP2 ADD SWAP1 POP PUSH2 0x106E JUMP JUMPDEST DUP7 DUP4 LT ISZERO PUSH2 0x10B0 JUMPI DUP5 DUP10 ADD SLOAD PUSH2 0x10AC PUSH1 0x1F DUP10 AND DUP3 PUSH2 0xFAA JUMP JUMPDEST DUP4 SSTORE POP JUMPDEST PUSH1 0x1 PUSH1 0x2 DUP9 MUL ADD DUP9 SSTORE POP POP POP JUMPDEST POP POP POP POP POP POP JUMPDEST JUMP JUMPDEST PUSH32 0x4E487B7100000000000000000000000000000000000000000000000000000000 PUSH0 MSTORE PUSH1 0x31 PUSH1 0x4 MSTORE PUSH1 0x24 PUSH0 REVERT JUMPDEST PUSH32 0x6D757374206265206F776E657220746F2063616C6C20746869732066756E6374 PUSH0 DUP3 ADD MSTORE PUSH32 0x696F6E0000000000000000000000000000000000000000000000000000000000 PUSH1 0x20 DUP3 ADD MSTORE POP JUMP JUMPDEST PUSH0 PUSH2 0x114D PUSH1 0x23 DUP4 PUSH2 0xA15 JUMP JUMPDEST SWAP2 POP PUSH2 0x1158 DUP3 PUSH2 0x10F3 JUMP JUMPDEST PUSH1 0x40 DUP3 ADD SWAP1 POP SWAP2 SWAP1 POP JUMP JUMPDEST PUSH0 PUSH1 0x20 DUP3 ADD SWAP1 POP DUP2 DUP2 SUB PUSH0 DUP4 ADD MSTORE PUSH2 0x117A DUP2 PUSH2 0x1141 JUMP JUMPDEST SWAP1 POP SWAP2 SWAP1 POP JUMP JUMPDEST PUSH32 0x7072696365206D7573742062652067726561746572207468616E203000000000 PUSH0 DUP3 ADD MSTORE POP JUMP JUMPDEST PUSH0 PUSH2 0x11B5 PUSH1 0x1C DUP4 PUSH2 0xA15 JUMP JUMPDEST SWAP2 POP PUSH2 0x11C0 DUP3 PUSH2 0x1181 JUMP JUMPDEST PUSH1 0x20 DUP3 ADD SWAP1 POP SWAP2 SWAP1 POP JUMP JUMPDEST PUSH0 PUSH1 0x20 DUP3 ADD SWAP1 POP DUP2 DUP2 SUB PUSH0 DUP4 ADD MSTORE PUSH2 0x11E2 DUP2 PUSH2 0x11A9 JUMP JUMPDEST SWAP1 POP SWAP2 SWAP1 POP JUMP JUMPDEST PUSH2 0x11F2 DUP3 PUSH2 0xA0B JUMP JUMPDEST PUSH8 0xFFFFFFFFFFFFFFFF DUP2 GT ISZERO PUSH2 0x120B JUMPI PUSH2 0x120A PUSH2 0xB5F JUMP JUMPDEST JUMPDEST PUSH2 0x1215 DUP3 SLOAD PUSH2 0xD0A JUMP JUMPDEST PUSH2 0x1220 DUP3 DUP3 DUP6 PUSH2 0xF58 JUMP JUMPDEST PUSH0 PUSH1 0x20 SWAP1 POP PUSH1 0x1F DUP4 GT PUSH1 0x1 DUP2 EQ PUSH2 0x1251 JUMPI PUSH0 DUP5 ISZERO PUSH2 0x123F JUMPI DUP3 DUP8 ADD MLOAD SWAP1 POP JUMPDEST PUSH2 0x1249 DUP6 DUP3 PUSH2 0xFC6 JUMP JUMPDEST DUP7 SSTORE POP PUSH2 0x12B0 JUMP JUMPDEST PUSH1 0x1F NOT DUP5 AND PUSH2 0x125F DUP7 PUSH2 0xE44 JUMP JUMPDEST PUSH0 JUMPDEST DUP3 DUP2 LT ISZERO PUSH2 0x1286 JUMPI DUP5 DUP10 ADD MLOAD DUP3 SSTORE PUSH1 0x1 DUP3 ADD SWAP2 POP PUSH1 0x20 DUP6 ADD SWAP5 POP PUSH1 0x20 DUP2 ADD SWAP1 POP PUSH2 0x1261 JUMP JUMPDEST DUP7 DUP4 LT ISZERO PUSH2 0x12A3 JUMPI DUP5 DUP10 ADD MLOAD PUSH2 0x129F PUSH1 0x1F DUP10 AND DUP3 PUSH2 0xFAA JUMP JUMPDEST DUP4 SSTORE POP JUMPDEST PUSH1 0x1 PUSH1 0x2 DUP9 MUL ADD DUP9 SSTORE POP POP POP JUMPDEST POP POP POP POP POP POP JUMP JUMPDEST PUSH32 0x676F616C20686173206E6F74206265656E207265616368656400000000000000 PUSH0 DUP3 ADD MSTORE POP JUMP JUMPDEST PUSH0 PUSH2 0x12EC PUSH1 0x19 DUP4 PUSH2 0xA15 JUMP JUMPDEST SWAP2 POP PUSH2 0x12F7 DUP3 PUSH2 0x12B8 JUMP JUMPDEST PUSH1 0x20 DUP3 ADD SWAP1 POP SWAP2 SWAP1 POP JUMP JUMPDEST PUSH0 PUSH1 0x20 DUP3 ADD SWAP1 POP DUP2 DUP2 SUB PUSH0 DUP4 ADD MSTORE PUSH2 0x1319 DUP2 PUSH2 0x12E0 JUMP JUMPDEST SWAP1 POP SWAP2 SWAP1 POP JUMP JUMPDEST PUSH32 0x706C6561736520616D6F756E74206D75737420626520657161756C20746F2074 PUSH0 DUP3 ADD MSTORE PUSH32 0x6965722073656C65637465640000000000000000000000000000000000000000 PUSH1 0x20 DUP3 ADD MSTORE POP JUMP JUMPDEST PUSH0 PUSH2 0x137A PUSH1 0x2C DUP4 PUSH2 0xA15 JUMP JUMPDEST SWAP2 POP PUSH2 0x1385 DUP3 PUSH2 0x1320 JUMP JUMPDEST PUSH1 0x40 DUP3 ADD SWAP1 POP SWAP2 SWAP1 POP JUMP JUMPDEST PUSH0 PUSH1 0x20 DUP3 ADD SWAP1 POP DUP2 DUP2 SUB PUSH0 DUP4 ADD MSTORE PUSH2 0x13A7 DUP2 PUSH2 0x136E JUMP JUMPDEST SWAP1 POP SWAP2 SWAP1 POP JUMP JUMPDEST PUSH32 0x63616D706167696E2068617320656E6465640000000000000000000000000000 PUSH0 DUP3 ADD MSTORE POP JUMP JUMPDEST PUSH0 PUSH2 0x13E2 PUSH1 0x12 DUP4 PUSH2 0xA15 JUMP JUMPDEST SWAP2 POP PUSH2 0x13ED DUP3 PUSH2 0x13AE JUMP JUMPDEST PUSH1 0x20 DUP3 ADD SWAP1 POP SWAP2 SWAP1 POP JUMP JUMPDEST PUSH0 PUSH1 0x20 DUP3 ADD SWAP1 POP DUP2 DUP2 SUB PUSH0 DUP4 ADD MSTORE PUSH2 0x140F DUP2 PUSH2 0x13D6 JUMP JUMPDEST SWAP1 POP SWAP2 SWAP1 POP JUMP JUMPDEST PUSH0 PUSH2 0x1420 DUP3 PUSH2 0x9AD JUMP JUMPDEST SWAP2 POP PUSH2 0x142B DUP4 PUSH2 0x9AD JUMP JUMPDEST SWAP3 POP DUP3 DUP3 ADD SWAP1 POP DUP1 DUP3 GT ISZERO PUSH2 0x1443 JUMPI PUSH2 0x1442 PUSH2 0xDA2 JUMP JUMPDEST JUMPDEST SWAP3 SWAP2 POP POP JUMP INVALID LOG2 PUSH5 0x6970667358 0x22 SLT KECCAK256 CREATE 0xB6 DUP6 PUSH16 0x5101F19F708BFE1DFBDE51A07489F954 0xCD 0xCF SWAP3 SWAP13 BALANCE 0xB0 0xE5 0xE 0xE1 0xD 0x4B CODECOPY PUSH5 0x736F6C6343 STOP ADDMOD BYTE STOP CALLER "
		},
		"gasEstimates": {
			"creation": {
				"codeDepositCost": "1049400",
				"executionCost": "infinite",
				"totalCost": "infinite"
			},
			"external": {
				"addTier(string,uint256)": "infinite",
				"deadline()": "2470",
				"description()": "infinite",
				"fund(uint256)": "infinite",
				"getContractBalance()": "423",
				"goal()": "2492",
				"name()": "infinite",
				"owner()": "2552",
				"removeTier(uint256)": "infinite",
				"tiers(uint256)": "infinite",
				"widthraw()": "infinite"
			}
		},
		"methodIdentifiers": {
			"addTier(string,uint256)": "8ece7b91",
			"deadline()": "29dcb0cf",
			"description()": "7284e416",
			"fund(uint256)": "ca1d209d",
			"getContractBalance()": "6f9fb98a",
			"goal()": "40193883",
			"name()": "06fdde03",
			"owner()": "8da5cb5b",
			"removeTier(uint256)": "7497211b",
			"tiers(uint256)": "039af9eb",
			"widthraw()": "aa3ba179"
		}
	},
	"abi": [
		{
			"inputs": [
				{
					"internalType": "string",
					"name": "_name",
					"type": "string"
				},
				{
					"internalType": "string",
					"name": "_description",
					"type": "string"
				},
				{
					"internalType": "uint256",
					"name": "_goal",
					"type": "uint256"
				},
				{
					"internalType": "uint256",
					"name": "_durationInDays",
					"type": "uint256"
				}
			],
			"stateMutability": "nonpayable",
			"type": "constructor"
		},
		{
			"inputs": [
				{
					"internalType": "string",
					"name": "_name",
					"type": "string"
				},
				{
					"internalType": "uint256",
					"name": "_amount",
					"type": "uint256"
				}
			],
			"name": "addTier",
			"outputs": [],
			"stateMutability": "nonpayable",
			"type": "function"
		},
		{
			"inputs": [],
			"name": "deadline",
			"outputs": [
				{
					"internalType": "uint256",
					"name": "",
					"type": "uint256"
				}
			],
			"stateMutability": "view",
			"type": "function"
		},
		{
			"inputs": [],
			"name": "description",
			"outputs": [
				{
					"internalType": "string",
					"name": "",
					"type": "string"
				}
			],
			"stateMutability": "view",
			"type": "function"
		},
		{
			"inputs": [
				{
					"internalType": "uint256",
					"name": "_tierIndex",
					"type": "uint256"
				}
			],
			"name": "fund",
			"outputs": [],
			"stateMutability": "payable",
			"type": "function"
		},
		{
			"inputs": [],
			"name": "getContractBalance",
			"outputs": [
				{
					"internalType": "uint256",
					"name": "",
					"type": "uint256"
				}
			],
			"stateMutability": "view",
			"type": "function"
		},
		{
			"inputs": [],
			"name": "goal",
			"outputs": [
				{
					"internalType": "uint256",
					"name": "",
					"type": "uint256"
				}
			],
			"stateMutability": "view",
			"type": "function"
		},
		{
			"inputs": [],
			"name": "name",
			"outputs": [
				{
					"internalType": "string",
					"name": "",
					"type": "string"
				}
			],
			"stateMutability": "view",
			"type": "function"
		},
		{
			"inputs": [],
			"name": "owner",
			"outputs": [
				{
					"internalType": "address",
					"name": "",
					"type": "address"
				}
			],
			"stateMutability": "view",
			"type": "function"
		},
		{
			"inputs": [
				{
					"internalType": "uint256",
					"name": "_index",
					"type": "uint256"
				}
			],
			"name": "removeTier",
			"outputs": [],
			"stateMutability": "nonpayable",
			"type": "function"
		},
		{
			"inputs": [
				{
					"internalType": "uint256",
					"name": "",
					"type": "uint256"
				}
			],
			"name": "tiers",
			"outputs": [
				{
					"internalType": "string",
					"name": "name",
					"type": "string"
				},
				{
					"internalType": "uint256",
					"name": "amount",
					"type": "uint256"
				},
				{
					"internalType": "uint256",
					"name": "numberOfTimesUsed",
					"type": "uint256"
				}
			],
			"stateMutability": "view",
			"type": "function"
		},
		{
			"inputs": [],
			"name": "widthraw",
			"outputs": [],
			"stateMutability": "nonpayable",
			"type": "function"
		}
	]
}